{
  "abi": [
    {
      "type": "constructor",
      "inputs": [
        {
          "name": "_usdc",
          "type": "address",
          "internalType": "address"
        }
      ],
      "stateMutability": "nonpayable"
    },
    {
      "type": "function",
      "name": "availableBalance",
      "inputs": [
        {
          "name": "user",
          "type": "address",
          "internalType": "address"
        }
      ],
      "outputs": [
        {
          "name": "",
          "type": "uint256",
          "internalType": "uint256"
        }
      ],
      "stateMutability": "view"
    },
    {
      "type": "function",
      "name": "balances",
      "inputs": [
        {
          "name": "",
          "type": "address",
          "internalType": "address"
        }
      ],
      "outputs": [
        {
          "name": "",
          "type": "uint256",
          "internalType": "uint256"
        }
      ],
      "stateMutability": "view"
    },
    {
      "type": "function",
      "name": "deposit",
      "inputs": [
        {
          "name": "amount",
          "type": "uint256",
          "internalType": "uint256"
        }
      ],
      "outputs": [],
      "stateMutability": "nonpayable"
    },
    {
      "type": "function",
      "name": "lockMargin",
      "inputs": [
        {
          "name": "user",
          "type": "address",
          "internalType": "address"
        },
        {
          "name": "amount",
          "type": "uint256",
          "internalType": "uint256"
        }
      ],
      "outputs": [],
      "stateMutability": "nonpayable"
    },
    {
      "type": "function",
      "name": "releaseMargin",
      "inputs": [
        {
          "name": "user",
          "type": "address",
          "internalType": "address"
        },
        {
          "name": "amount",
          "type": "uint256",
          "internalType": "uint256"
        }
      ],
      "outputs": [],
      "stateMutability": "nonpayable"
    },
    {
      "type": "function",
      "name": "usdc",
      "inputs": [],
      "outputs": [
        {
          "name": "",
          "type": "address",
          "internalType": "contract IERC20"
        }
      ],
      "stateMutability": "view"
    },
    {
      "type": "function",
      "name": "usedMargin",
      "inputs": [
        {
          "name": "",
          "type": "address",
          "internalType": "address"
        }
      ],
      "outputs": [
        {
          "name": "",
          "type": "uint256",
          "internalType": "uint256"
        }
      ],
      "stateMutability": "view"
    },
    {
      "type": "function",
      "name": "withdraw",
      "inputs": [
        {
          "name": "amount",
          "type": "uint256",
          "internalType": "uint256"
        }
      ],
      "outputs": [],
      "stateMutability": "nonpayable"
    },
    {
      "type": "event",
      "name": "Deposited",
      "inputs": [
        {
          "name": "user",
          "type": "address",
          "indexed": true,
          "internalType": "address"
        },
        {
          "name": "amount",
          "type": "uint256",
          "indexed": false,
          "internalType": "uint256"
        }
      ],
      "anonymous": false
    },
    {
      "type": "event",
      "name": "MarginLocked",
      "inputs": [
        {
          "name": "user",
          "type": "address",
          "indexed": true,
          "internalType": "address"
        },
        {
          "name": "amount",
          "type": "uint256",
          "indexed": false,
          "internalType": "uint256"
        }
      ],
      "anonymous": false
    },
    {
      "type": "event",
      "name": "MarginReleased",
      "inputs": [
        {
          "name": "user",
          "type": "address",
          "indexed": true,
          "internalType": "address"
        },
        {
          "name": "amount",
          "type": "uint256",
          "indexed": false,
          "internalType": "uint256"
        }
      ],
      "anonymous": false
    },
    {
      "type": "event",
      "name": "Withdrawn",
      "inputs": [
        {
          "name": "user",
          "type": "address",
          "indexed": true,
          "internalType": "address"
        },
        {
          "name": "amount",
          "type": "uint256",
          "indexed": false,
          "internalType": "uint256"
        }
      ],
      "anonymous": false
    }
  ],
  "bytecode": {
    "object": "0x60a060405234801561000f575f5ffd5b50604051610ef3380380610ef3833981810160405281019061003191906100c9565b8073ffffffffffffffffffffffffffffffffffffffff1660808173ffffffffffffffffffffffffffffffffffffffff1681525050506100f4565b5f5ffd5b5f73ffffffffffffffffffffffffffffffffffffffff82169050919050565b5f6100988261006f565b9050919050565b6100a88161008e565b81146100b2575f5ffd5b50565b5f815190506100c38161009f565b92915050565b5f602082840312156100de576100dd61006b565b5b5f6100eb848285016100b5565b91505092915050565b608051610dd961011a5f395f818161029e015281816103cd01526106eb0152610dd95ff3fe608060405234801561000f575f5ffd5b5060043610610086575f3560e01c80639101e5b3116100595780639101e5b314610124578063a0821be314610140578063a5bce37914610170578063b6b55f251461018c57610086565b806327e235e31461008a5780632e1a7d4d146100ba5780633e413bee146100d65780637ad581d4146100f4575b5f5ffd5b6100a4600480360381019061009f91906108ca565b6101a8565b6040516100b1919061090d565b60405180910390f35b6100d460048036038101906100cf9190610950565b6101bc565b005b6100de6103cb565b6040516100eb91906109d6565b60405180910390f35b61010e600480360381019061010991906108ca565b6103ef565b60405161011b919061090d565b60405180910390f35b61013e600480360381019061013991906109ef565b610404565b005b61015a600480360381019061015591906108ca565b610529565b604051610167919061090d565b60405180910390f35b61018a600480360381019061018591906109ef565b6105b6565b005b6101a660048036038101906101a19190610950565b6106a6565b005b5f602052805f5260405f205f915090505481565b5f81116101fe576040517f08c379a00000000000000000000000000000000000000000000000000000000081526004016101f590610a87565b60405180910390fd5b8061020833610529565b1015610249576040517f08c379a000000000000000000000000000000000000000000000000000000000815260040161024090610aef565b60405180910390fd5b805f5f3373ffffffffffffffffffffffffffffffffffffffff1673ffffffffffffffffffffffffffffffffffffffff1681526020019081526020015f205f8282546102949190610b3a565b925050819055505f7f000000000000000000000000000000000000000000000000000000000000000073ffffffffffffffffffffffffffffffffffffffff1663a9059cbb33846040518363ffffffff1660e01b81526004016102f7929190610b7c565b6020604051808303815f875af1158015610313573d5f5f3e3d5ffd5b505050506040513d601f19601f820116820180604052508101906103379190610bd8565b905080610379576040517f08c379a000000000000000000000000000000000000000000000000000000000815260040161037090610c4d565b60405180910390fd5b3373ffffffffffffffffffffffffffffffffffffffff167f7084f5476618d8e60b11ef0d7d3f06914655adb8793e28ff7f018d4c76d505d5836040516103bf919061090d565b60405180910390a25050565b7f000000000000000000000000000000000000000000000000000000000000000081565b6001602052805f5260405f205f915090505481565b8060015f8473ffffffffffffffffffffffffffffffffffffffff1673ffffffffffffffffffffffffffffffffffffffff1681526020019081526020015f20541015610484576040517f08c379a000000000000000000000000000000000000000000000000000000000815260040161047b90610cb5565b60405180910390fd5b8060015f8473ffffffffffffffffffffffffffffffffffffffff1673ffffffffffffffffffffffffffffffffffffffff1681526020019081526020015f205f8282546104d09190610b3a565b925050819055508173ffffffffffffffffffffffffffffffffffffffff167f5e63d54af10545f0b2bd229512f244caefe863ad94dbbb7ad827432c84d762f58260405161051d919061090d565b60405180910390a25050565b5f60015f8373ffffffffffffffffffffffffffffffffffffffff1673ffffffffffffffffffffffffffffffffffffffff1681526020019081526020015f20545f5f8473ffffffffffffffffffffffffffffffffffffffff1673ffffffffffffffffffffffffffffffffffffffff1681526020019081526020015f20546105af9190610b3a565b9050919050565b806105c083610529565b1015610601576040517f08c379a00000000000000000000000000000000000000000000000000000000081526004016105f890610d1d565b60405180910390fd5b8060015f8473ffffffffffffffffffffffffffffffffffffffff1673ffffffffffffffffffffffffffffffffffffffff1681526020019081526020015f205f82825461064d9190610d3b565b925050819055508173ffffffffffffffffffffffffffffffffffffffff167f7059f5d1cfe117fedd3ecf0cca85231af95572360556469dc0b576c1b6cbd6608260405161069a919061090d565b60405180910390a25050565b5f81116106e8576040517f08c379a00000000000000000000000000000000000000000000000000000000081526004016106df90610a87565b60405180910390fd5b5f7f000000000000000000000000000000000000000000000000000000000000000073ffffffffffffffffffffffffffffffffffffffff166323b872dd3330856040518463ffffffff1660e01b815260040161074693929190610d6e565b6020604051808303815f875af1158015610762573d5f5f3e3d5ffd5b505050506040513d601f19601f820116820180604052508101906107869190610bd8565b9050806107c8576040517f08c379a00000000000000000000000000000000000000000000000000000000081526004016107bf90610c4d565b60405180910390fd5b815f5f3373ffffffffffffffffffffffffffffffffffffffff1673ffffffffffffffffffffffffffffffffffffffff1681526020019081526020015f205f8282546108139190610d3b565b925050819055503373ffffffffffffffffffffffffffffffffffffffff167f2da466a7b24304f47e87fa2e1e5a81b9831ce54fec19055ce277ca2f39ba42c483604051610860919061090d565b60405180910390a25050565b5f5ffd5b5f73ffffffffffffffffffffffffffffffffffffffff82169050919050565b5f61089982610870565b9050919050565b6108a98161088f565b81146108b3575f5ffd5b50565b5f813590506108c4816108a0565b92915050565b5f602082840312156108df576108de61086c565b5b5f6108ec848285016108b6565b91505092915050565b5f819050919050565b610907816108f5565b82525050565b5f6020820190506109205f8301846108fe565b92915050565b61092f816108f5565b8114610939575f5ffd5b50565b5f8135905061094a81610926565b92915050565b5f602082840312156109655761096461086c565b5b5f6109728482850161093c565b91505092915050565b5f819050919050565b5f61099e61099961099484610870565b61097b565b610870565b9050919050565b5f6109af82610984565b9050919050565b5f6109c0826109a5565b9050919050565b6109d0816109b6565b82525050565b5f6020820190506109e95f8301846109c7565b92915050565b5f5f60408385031215610a0557610a0461086c565b5b5f610a12858286016108b6565b9250506020610a238582860161093c565b9150509250929050565b5f82825260208201905092915050565b7f496e76616c696420616d6f756e740000000000000000000000000000000000005f82015250565b5f610a71600e83610a2d565b9150610a7c82610a3d565b602082019050919050565b5f6020820190508181035f830152610a9e81610a65565b9050919050565b7f496e73756666696369656e742062616c616e63650000000000000000000000005f82015250565b5f610ad9601483610a2d565b9150610ae482610aa5565b602082019050919050565b5f6020820190508181035f830152610b0681610acd565b9050919050565b7f4e487b71000000000000000000000000000000000000000000000000000000005f52601160045260245ffd5b5f610b44826108f5565b9150610b4f836108f5565b9250828203905081811115610b6757610b66610b0d565b5b92915050565b610b768161088f565b82525050565b5f604082019050610b8f5f830185610b6d565b610b9c60208301846108fe565b9392505050565b5f8115159050919050565b610bb781610ba3565b8114610bc1575f5ffd5b50565b5f81519050610bd281610bae565b92915050565b5f60208284031215610bed57610bec61086c565b5b5f610bfa84828501610bc4565b91505092915050565b7f5472616e73666572206661696c656400000000000000000000000000000000005f82015250565b5f610c37600f83610a2d565b9150610c4282610c03565b602082019050919050565b5f6020820190508181035f830152610c6481610c2b565b9050919050565b7f496e76616c69642072656c6561736520616d6f756e74000000000000000000005f82015250565b5f610c9f601683610a2d565b9150610caa82610c6b565b602082019050919050565b5f6020820190508181035f830152610ccc81610c93565b9050919050565b7f496e73756666696369656e74206d617267696e000000000000000000000000005f82015250565b5f610d07601383610a2d565b9150610d1282610cd3565b602082019050919050565b5f6020820190508181035f830152610d3481610cfb565b9050919050565b5f610d45826108f5565b9150610d50836108f5565b9250828201905080821115610d6857610d67610b0d565b5b92915050565b5f606082019050610d815f830186610b6d565b610d8e6020830185610b6d565b610d9b60408301846108fe565b94935050505056fea2646970667358221220649f56c4e4a656cf4d0c918f06575fc1a60be630f5922db420ec79496d0a7edc64736f6c63430008210033",
    "linkReferences": {}
  },
  "methodIdentifiers": {
    "availableBalance(address)": "a0821be3",
    "balances(address)": "27e235e3",
    "deposit(uint256)": "b6b55f25",
    "lockMargin(address,uint256)": "a5bce379",
    "releaseMargin(address,uint256)": "9101e5b3",
    "usdc()": "3e413bee",
    "usedMargin(address)": "7ad581d4",
    "withdraw(uint256)": "2e1a7d4d"
  },
  "id": 22
}